{
  "_format": "hh-sol-artifact-1",
  "contractName": "BuyMeACoffee",
  "sourceName": "contracts/BuyMeACoffee.sol",
  "abi": [
    {
      "inputs": [],
      "stateMutability": "nonpayable",
      "type": "constructor"
    },
    {
      "anonymous": false,
      "inputs": [
        {
          "indexed": true,
          "internalType": "address",
          "name": "from",
          "type": "address"
        },
        {
          "indexed": false,
          "internalType": "uint256",
          "name": "timestamp",
          "type": "uint256"
        },
        {
          "indexed": false,
          "internalType": "string",
          "name": "name",
          "type": "string"
        },
        {
          "indexed": false,
          "internalType": "string",
          "name": "message",
          "type": "string"
        }
      ],
      "name": "NewMemo",
      "type": "event"
    },
    {
      "inputs": [
        {
          "internalType": "string",
          "name": "_name",
          "type": "string"
        },
        {
          "internalType": "string",
          "name": "_message",
          "type": "string"
        }
      ],
      "name": "buyCoffees",
      "outputs": [],
      "stateMutability": "payable",
      "type": "function"
    },
    {
      "inputs": [],
      "name": "fetchMemoDetails",
      "outputs": [
        {
          "components": [
            {
              "internalType": "address",
              "name": "from",
              "type": "address"
            },
            {
              "internalType": "uint256",
              "name": "timestamp",
              "type": "uint256"
            },
            {
              "internalType": "string",
              "name": "name",
              "type": "string"
            },
            {
              "internalType": "string",
              "name": "message",
              "type": "string"
            }
          ],
          "internalType": "struct BuyMeACoffee.Memos[]",
          "name": "",
          "type": "tuple[]"
        }
      ],
      "stateMutability": "view",
      "type": "function"
    },
    {
      "inputs": [],
      "name": "withdrawTips",
      "outputs": [],
      "stateMutability": "nonpayable",
      "type": "function"
    }
  ],
  "bytecode": "0x6080604052348015600f57600080fd5b50336000806101000a81548173ffffffffffffffffffffffffffffffffffffffff021916908373ffffffffffffffffffffffffffffffffffffffff160217905550610b938061005f6000396000f3fe6080604052600436106100345760003560e01c80633aaa74b214610039578063464fe4bc14610050578063dc199cea1461007b575b600080fd5b34801561004557600080fd5b5061004e610097565b005b34801561005c57600080fd5b506100656100f7565b604051610072919061061f565b60405180910390f35b6100956004803603810190610090919061078a565b6102da565b005b60008054906101000a900473ffffffffffffffffffffffffffffffffffffffff1673ffffffffffffffffffffffffffffffffffffffff166108fc479081150290604051600060405180830381858888f193505050506100f557600080fd5b565b60606001805480602002602001604051908101604052809291908181526020016000905b828210156102d157838290600052602060002090600402016040518060800160405290816000820160009054906101000a900473ffffffffffffffffffffffffffffffffffffffff1673ffffffffffffffffffffffffffffffffffffffff1673ffffffffffffffffffffffffffffffffffffffff168152602001600182015481526020016002820180546101ae90610831565b80601f01602080910402602001604051908101604052809291908181526020018280546101da90610831565b80156102275780601f106101fc57610100808354040283529160200191610227565b820191906000526020600020905b81548152906001019060200180831161020a57829003601f168201915b5050505050815260200160038201805461024090610831565b80601f016020809104026020016040519081016040528092919081815260200182805461026c90610831565b80156102b95780601f1061028e576101008083540402835291602001916102b9565b820191906000526020600020905b81548152906001019060200180831161029c57829003601f168201915b5050505050815250508152602001906001019061011b565b50505050905090565b66038d7ea4c68000341015610324576040517f08c379a000000000000000000000000000000000000000000000000000000000815260040161031b906108bf565b60405180910390fd5b600160405180608001604052803373ffffffffffffffffffffffffffffffffffffffff16815260200142815260200184815260200183815250908060018154018082558091505060019003906000526020600020906004020160009091909190915060008201518160000160006101000a81548173ffffffffffffffffffffffffffffffffffffffff021916908373ffffffffffffffffffffffffffffffffffffffff1602179055506020820151816001015560408201518160020190816103ec9190610a8b565b5060608201518160030190816104029190610a8b565b5050505050565b600081519050919050565b600082825260208201905092915050565b6000819050602082019050919050565b600073ffffffffffffffffffffffffffffffffffffffff82169050919050565b600061046082610435565b9050919050565b61047081610455565b82525050565b6000819050919050565b61048981610476565b82525050565b600081519050919050565b600082825260208201905092915050565b60005b838110156104c95780820151818401526020810190506104ae565b60008484015250505050565b6000601f19601f8301169050919050565b60006104f18261048f565b6104fb818561049a565b935061050b8185602086016104ab565b610514816104d5565b840191505092915050565b60006080830160008301516105376000860182610467565b50602083015161054a6020860182610480565b506040830151848203604086015261056282826104e6565b9150506060830151848203606086015261057c82826104e6565b9150508091505092915050565b6000610595838361051f565b905092915050565b6000602082019050919050565b60006105b582610409565b6105bf8185610414565b9350836020820285016105d185610425565b8060005b8581101561060d57848403895281516105ee8582610589565b94506105f98361059d565b925060208a019950506001810190506105d5565b50829750879550505050505092915050565b6000602082019050818103600083015261063981846105aa565b905092915050565b6000604051905090565b600080fd5b600080fd5b600080fd5b600080fd5b7f4e487b7100000000000000000000000000000000000000000000000000000000600052604160045260246000fd5b610697826104d5565b810181811067ffffffffffffffff821117156106b6576106b561065f565b5b80604052505050565b60006106c9610641565b90506106d5828261068e565b919050565b600067ffffffffffffffff8211156106f5576106f461065f565b5b6106fe826104d5565b9050602081019050919050565b82818337600083830152505050565b600061072d610728846106da565b6106bf565b9050828152602081018484840111156107495761074861065a565b5b61075484828561070b565b509392505050565b600082601f83011261077157610770610655565b5b813561078184826020860161071a565b91505092915050565b600080604083850312156107a1576107a061064b565b5b600083013567ffffffffffffffff8111156107bf576107be610650565b5b6107cb8582860161075c565b925050602083013567ffffffffffffffff8111156107ec576107eb610650565b5b6107f88582860161075c565b9150509250929050565b7f4e487b7100000000000000000000000000000000000000000000000000000000600052602260045260246000fd5b6000600282049050600182168061084957607f821691505b60208210810361085c5761085b610802565b5b50919050565b600082825260208201905092915050565b7f596f75206d75737420746970206174206c6561737420302e3030312045544800600082015250565b60006108a9601f83610862565b91506108b482610873565b602082019050919050565b600060208201905081810360008301526108d88161089c565b9050919050565b60008190508160005260206000209050919050565b60006020601f8301049050919050565b600082821b905092915050565b6000600883026109417fffffffffffffffffffffffffffffffffffffffffffffffffffffffffffffffff82610904565b61094b8683610904565b95508019841693508086168417925050509392505050565b6000819050919050565b600061098861098361097e84610476565b610963565b610476565b9050919050565b6000819050919050565b6109a28361096d565b6109b66109ae8261098f565b848454610911565b825550505050565b600090565b6109cb6109be565b6109d6818484610999565b505050565b5b818110156109fa576109ef6000826109c3565b6001810190506109dc565b5050565b601f821115610a3f57610a10816108df565b610a19846108f4565b81016020851015610a28578190505b610a3c610a34856108f4565b8301826109db565b50505b505050565b600082821c905092915050565b6000610a6260001984600802610a44565b1980831691505092915050565b6000610a7b8383610a51565b9150826002028217905092915050565b610a948261048f565b67ffffffffffffffff811115610aad57610aac61065f565b5b610ab78254610831565b610ac28282856109fe565b600060209050601f831160018114610af55760008415610ae3578287015190505b610aed8582610a6f565b865550610b55565b601f198416610b03866108df565b60005b82811015610b2b57848901518255600182019150602085019450602081019050610b06565b86831015610b485784890151610b44601f891682610a51565b8355505b6001600288020188555050505b50505050505056fea2646970667358221220d7cf595bb0f2678c8038e968be3198a618620ef799c3f5737ad301ef123322f564736f6c634300081c0033",
  "linkReferences": {},
  "deployedLinkReferences": {}
}